:100000000C9442040C9489040C9489040C94890483
:100010000C9489040C9489040C9489040C9489042C
:100020000C9489040C9489040C9489040C94612820
:100030000C9410290C9487210C9489040C94890445
:100040000C9489040C9489040C9489040C94EF2179
:100050000C9489040C9489040C9489040C948904EC
:100060000C9489040C9489040C9489040C948904DC
:100070000C948904A306A506B006A706A906AB063C
:10008000AD06AF06B206B406B606C106B806BA0695
:10009000BC06BE06C006C3068B178B17BD17BD175F
:1000A000FD176219621962191D186219BE18BE186F
:1000B0002E19371962195B19CB18CB18CB18CB182E
:1000C000CB18CB18CB18CB18CB18CB18CB18CB1818
:1000D000CB18CB18CB18CB18DA18E818EF18F6188D
:1000E0000019ED19ED19FF19FF19F619FF19FF197C
:1000F000FF19ED19ED19FB19FF19FF19FB197D29DE
:10010000A429962AA429962AF029132A962A692A2C
:10011000782A5300540055002A005F0060006100F7
:1001200056005C005D005E00570059005A005B00FD
:100130002B00620085006300580044454255473A51
:100140002064697361626C65642E0A0044454255FF
:10015000473A20656E61626C65642E0A000A0025CC
:10016000303862003A200025303258000A722F637E
:100170002030313233343536370A007267626C69A9
:100180006768742074696D65722064697361626C5C
:10019000652E0A007267626C696768742074696D05
:1001A000657220656E61626C65642E0A007267621A
:1001B0006C696768742073657420687376205B4E81
:1001C0004F454550524F4D5D3A2025752C25752CD5
:1001D00025750A007267626C6967687420736574BC
:1001E00020687376205B454550524F4D5D3A20257F
:1001F000752C25752C25750A007267626C69676815
:1002000074207261696E626F772073657420687301
:10021000763A2025642C25642C25642C25750A004B
:100220007267626C696768742064697361626C6587
:10023000205B454550524F4D5D3A207267626C69B4
:100240006768745F636F6E6669672E656E61626C66
:1002500065203D2025750A007267626C69676874C5
:1002600020656E61626C65205B454550524F4D5D67
:100270003A207267626C696768745F636F6E666963
:10028000672E656E61626C65203D2025750A0072DF
:1002900067626C6967687420746F67676C65205B60
:1002A000454550524F4D5D3A207267626C696768F0
:1002B000745F636F6E6669672E656E61626C652040
:1002C0003D2025750A007267626C69676874206D4D
:1002D0006F6465205B4E4F454550524F4D5D3A204F
:1002E00025750A007267626C69676874206D6F64B7
:1002F00065205B454550524F4D5D3A2025750A00FB
:100300007267626C696768745F696E69742072678E
:10031000626C696768745F636F6E6669672E6D6F84
:100320006465203D20302E20577269746520646515
:100330006661756C742076616C75657320746F20CE
:10034000454550524F4D2E0A007267626C696768CE
:10035000745F696E6974206565636F6E6669672096
:100360006973206E6F7420656E61626C65642E0A1D
:10037000007267626C696768745F696E6974207384
:1003800074617274210A007267626C696768745FD5
:10039000696E69742063616C6C65642E0A00726713
:1003A000626C696768745F636F6E6669672E7370ED
:1003B000656564203D2025640A007267626C696788
:1003C00068745F636F6E6669672E76616C203D208E
:1003D00025640A007267626C696768745F636F6E98
:1003E0006669672E736174203D2025640A00726778
:1003F000626C696768745F636F6E6669672E6875A3
:1004000065203D2025640A007267686C696768741E
:100410005F636F6E6669672E6D6F6465203D202592
:10042000640A007267626C696768745F636F6E6606
:1004300069672E656E61626C65203D2025640A0047
:100440007267626C696768745F636F6E6669672064
:100450006570726F6D0A0000047F3F1F6432146480
:100460003214783C1E1E140A052223252628292A28
:100470002C2D2F3032333536383A3B3D3E40424307
:100480004547494A4C4E5051535557595A5C5E6046
:1004900062646668696B6D6F71737577797B7D7F58
:1004A00081838587898A8C8E90929496989A9C9E57
:1004B0009FA1A3A5A7A8AAACAEAFB1B3B4B6B8B973
:1004C000BBBCBEBFC1C2C3C5C6C7C9CACBCCCDCEDB
:1004D000D0D1D2D2D3D4D5D6D7D7D8D9D9DADADBBE
:1004E000DBDBDCDCDCDCDCDDDDDDDDDCDCDCDCDC4A
:1004F000DBDBDBDADAD9D9D8D7D7D6D5D4D3D2D289
:10050000D1D0CECDCCCBCAC9C7C6C5C3C2C1BFBE70
:10051000BCBBB9B8B6B4B3B1AFAEACAAA8A7A5A3DB
:10052000A19F9E9C9A98969492908E8C8A8987859A
:1005300083817F7D7B79777573716F6D6B69686679
:100540006462605E5C5A5957555351504E4C4A494B
:1005500047454342403E3D3B3A3836353332302FF3
:100560002D2C2A292826252322FFAA7F554000006A
:100570000000000000000000010101010101010173
:100580000102020202020202020303030303030345
:100590000404040404050505050506060606060709
:1005A000070707080808080909090A0A0A0B0B0BBC
:1005B0000C0C0C0D0D0D0E0E0E0F0F101010111156
:1005C00012121313141415151616171718181919D3
:1005D0001A1A1B1C1C1D1D1E1F1F20212122232334
:1005E00024252526272828292A2B2C2C2D2E2F3070
:1005F000313132333435363738393A3B3C3D3E3F82
:10060000404142434445464748494B4C4D4E4F506C
:10061000525354555758595A5C5D5E606163646526
:1006200067686A6B6C6E6F7172747677797A7C7DAD
:100630007F8182848687898B8D8E909294959799FD
:100640009B9D9FA1A2A4A6A8AAACAEB0B2B4B6B915
:10065000BBBDBFC1C3C5C8CACCCED0D3D5D7DADCE9
:10066000DEE1E3E6E8EAEDEFF2F4F7F9FCFF0A0079
:100670002530325820006B6579626F6172645F7259
:1006800065706F72743A20000A0025303258006B92
:100690006579626F6172645F7365745F6C65643AFB
:1006A00020006261636B6C696768742073746570A5
:1006B0003A2025750A006261636B6C696768742073
:1006C00064697361626C650A006261636B6C69677F
:1006D000687420656E61626C650A006261636B6CB0
:1006E0006967687420746F67676C653A2025750ABE
:1006F000006261636B6C696768742064656372652E
:100700006173653A2025750A006261636B6C6967E5
:10071000687420696E6372656173653A2025750A95
:10072000005B735D004B6579626F61726420737466
:100730006172742E0A005B575D005B535D005B5273
:100740005D0004033000000012034E006F007600CD
:1007500065006C0070006100640000001C034E0026
:100760006F00760065006C004B0065007900730037
:100770002E00780079007A000000040309040902C1
:100780005B00030100A0FA0904000001030101005D
:100790000921110100012240000705810308000A18
:1007A00009040100010300000009211101000122D8
:1007B00036000705820320000A0904020002030034
:1007C00000000921110100012222000705830320F6
:1007D00000010705030320000112011001000000C1
:1007E00008EDFE70600100010203010631FF09748B
:1007F000A1010975150026FF0095207508810209E1
:1008000076150026FF00952075089102C0050109A4
:1008100080A10185031601002603001A81002A83A6
:1008200000751095018100C0050C0901A101850426
:10083000160100269C021A01002A9C0275109501DF
:100840008100C005010906A101050719E029E71586
:100850000025019508750181029501750881010542
:1008600008190129059505750191029501750391F6
:10087000010507190029FF150026FF0095067508D8
:100880008100C00011241FBECFEFD4E0DEBFCDBF7A
:1008900004B603FE27C08091190290911A02A0911C
:1008A0001B02B0911C028730904BA740B04BD1F493
:1008B0001092190210921A0210921B0210921C023E
:1008C00014BE84B7877F84BF0FB6F894A895809133
:1008D0006000886180936000109260000FBEE0E0CD
:1008E000F8E3099511E0A0E0B1E0E6E3F8E502C025
:1008F00005900D92AA35B107D9F722E0AAE5B1E03B
:1009000001C01D92A931B207E1F70E9498250C940D
:10091000192C0C940000FF93EF93E0915A01F09191
:100920005B01309709F00995EF91FF910895FC0163
:100930008591803011F0EFDFFBCF0895FF27E0E2D3
:1009400030E247FF0CC0419597FF09C0EDE260958A
:10095000709580959095611D711D811D911D27FFDA
:1009600002C0219530E350E2AA27660F771F881F47
:10097000991FAA1FA41710F0A41B63955A95A9F7F5
:10098000AA3008F0A95FA05DAF93F39561157105DA
:100990008105910541F7ED3211F4EF93F395F217CC
:1009A00018F43F93F395FBCF8F91B5DFFA95E1F7FC
:1009B0000895E991F9918591803021F0853219F0FF
:1009C000AADFF9CF089520E0E89455915532C1F39C
:1009D000503311F4689455915A3348F4505390F3BE
:1009E000220F022E220F220F200D250FF4CF0EF41E
:1009F000219589919991533619F3533729F153353C
:100A000059F1BC0188279927E8945C3621F4899133
:100A1000999168945591543639F446EF7EF077FFFA
:100A20000DC08FEF9FEF0AC055374AE039F05835B7
:100A300040E121F0523642E009F00895FF93EF9330
:100A40007DDFEF91FF91B7CFFF93EF93FC01819191
:100A50008030B9F360DFFBCFFF93EF9368DFF1CF16
:100A6000DF93CF93CDB7DEB72596A3DFCF91DF918C
:100A7000089581E0089581E008950C943B051F934B
:100A8000CF93DF9300D000D01F92CDB7DEB749835C
:100A90005A832091870189819A81211112C066238E
:100AA00049F00E94251F182F682F89819A810E9482
:100AB000CA1E03C00E94F91E182F69817A81812FF6
:100AC00004C00E94251F69817A810F900F900F90BA
:100AD0000F900F90DF91CF911F910C942308FC0190
:100AE000408151816281738184810C943F050C9413
:100AF000DB0AE82FE295EF70F0E032A1282F2F708B
:100B000081E090E001C0880F2A95EAF78095832361
:100B100082A30895CF92DF92EF92FF928B3030F450
:100B2000811105C090918000977F04C08AE0909168
:100B30008000986090938000682F70E080E090E0E3
:100B40002FEF3FEF40E050E00E94412BB901CA0176
:100B50002AE030E040E050E00E94172B2C3784E17F
:100B600038074105510530F4C90169E070E00E9481
:100B7000EF2A31C0DA01C9018A50974DAF4FBF4FFC
:100B80006627782F892F9A2F25EF38E241E050E031
:100B90000E94172B69017A01CA01B9010E94412BF9
:100BA000B22FA32FF42FE52FC701B6012B2F3A2F19
:100BB0004F2F5E2F0E94412BC901DA01892F9A2FF6
:100BC000AB2FBB27009721E0A207B10511F0BC01B4
:100BD00002C06FEF7FEF70938D0060938C00FF90E9
:100BE000EF90DF90CF900895279A87E30E947905D0
:100BF0008AE08093800089E1809381008FEF9FEFEE
:100C000090938700809386000C9452220E946C205F
:100C1000811102C00E94EF200E94F4050C94D80AB2
:100C200008950C9410060C94110608950E94DD1985
:100C30000E9415062FEF84E39CE0215080409040F5
:100C4000E1F700C000000C9415220F931F93CF937F
:100C5000DF93EC010E946F058C01BE010E943D05EF
:100C6000882329F1BE01C8010E94DC138823F9F012
:100C70000A3C8CE51807E9F008F019C1033C8CE543
:100C80001807F1F040F505318CE5180708F0AEC003
:100C900002308CE51807B0F501158CE5180709F04E
:100CA00082C0CA81CC2309F4C4C10E941606C0E0E8
:100CB000C0C1CA81CC2309F4BCC10E94A40FF7CFE4
:100CC000CA81CC2309F4B5C10E94A51F8272B9F074
:100CD0000E94D611ECCF063C8CE5180709F4BBC086
:100CE00008F0CBC0043C8CE5180709F0BBC0CA81F2
:100CF000CC2309F49EC10E94A51F827249F30E9471
:100D0000C911D5CF8A81882309F450C00E946C2074
:100D1000811102C00E94EF200E947F2090E09093FA
:100D20000A0280930902F801E350FC45E231F10523
:100D300030F4E65CFF4F809109020C94392B8091CE
:100D40000902816027C0826025C0846023C0806161
:100D500021C080621FC080641DC080681BC0846089
:100D6000886018C08E7F16C08D7F14C08B7F12C024
:100D70008F7E10C08F7D0EC08F7B0CC08F770AC016
:100D80008B7F877F07C087FB222720F991E092277E
:100D900090FB87F980930902809109020E948320C9
:100DA0000E94DD1984CF01301C4539F0CE01DF915E
:100DB000CF911F910F910C943905CA81CC2309F46E
:100DC00038C18091E401C82FC095C170C0FB80F983
:100DD0008093E401CC2329F08CE491E00E949704F5
:100DE00066CF8AE391E00E94970423C106318CE527
:100DF000180731F50E94A51F282F8A814091100104
:100E000050911101882379F02A7A91E009F490E059
:100E100090935C01911102C069E201C065E3CA01CF
:100E20000E9423210AC080915C01811102C069E205
:100E300001C065E3CA010E9425210E94F11F37CF3E
:100E4000023C1C4509F0B2CFCA81CC2309F4F1C0A1
:100E50000E9489122CCFCA81CC2309F4EAC00E94D7
:100E6000680F25CF053C1C4509F0A0CFCA81CC23D3
:100E700009F4DFC00E945B0F1ACFCA81083C8CE5E1
:100E8000180731F4CC2309F4D4C00E94860F0FCF89
:100E9000093C1C4530F4CC2309F4CBC00E94770FE9
:100EA00006CFCC2309F4C5C00E94950F00CF013DA9
:100EB0008CE5180779F4CA81CC2309F4BAC00E94E2
:100EC0008A0D8F3028F00E948A0D843108F417CFE4
:100ED0008FE00EC0023D8CE5180708F058C00D3CAD
:100EE0008CE5180741F4CA81CC2309F4A2C081E043
:100EF0000E94D911DCCE0E3C8CE51807B0F40B3CF7
:100F00008CE5180739F4CA81CC2309F492C00E94F9
:100F1000920DCDCE0C3C1C4509F048CFCA81CC23A4
:100F200009F487C00E94A30DC2CECA810F3C8CE594
:100F3000180771F4CC2309F47CC00E948A0D863016
:100F400028F00E948A0D883008F4D9CE86E0D0CFF0
:100F5000003D1C4570F4CC2309F46BC00E948A0D3F
:100F6000823028F00E948A0D853008F4C8CE82E0D5
:100F7000BFCFCC2309F45DC00E948A0D893028F0D0
:100F80000E948A0D8E3008F4BACE89E0B1CF053DBB
:100F90008CE5180731F4CA81CC2309F44AC083E2F6
:100FA000A7CF063D8CE5180730F5CA81033D8CE5D7
:100FB000180721F4CC23E9F188E19ACF043D1C45C0
:100FC00068F4CC23B1F10E948A0D853128F00E948B
:100FD0008A0D873108F493CE85E18ACFCC2349F17D
:100FE0000E948A0D893128F00E948A0D823208F40D
:100FF00086CE89E17DCF0D3D8CE5180739F4CA8195
:10100000CC23B9F082E00E94422651CE0E3D8CE501
:10101000180731F4CA81CC2361F00E94EF2047CE3B
:101020000C3D1C4509F0C2CECA81CC2311F080E0F2
:10103000EACF8C2FDF91CF911F910F91089580E01F
:1010400090E0089508959B0190E065E070E00E94B3
:10105000D22A830F911DFC01EE0FFF1FEE0FFF1F21
:10106000E20FF11DEE0FFF1FEE5EFE4F8591949192
:101070000895880F991FFC01E35AFE4F85919491C2
:101080000895CF93DF930E9423080E94370AEC0152
:10109000811521E5920708F042C0811540E59407CB
:1010A00008F02FC1883E910500F5803E910508F0BB
:1010B000DAC1883A910570F4853A910508F0A4C028
:1010C0008130910509F4CFC108F480C1049708F07C
:1010D000CAC17CC18F3B910508F4A1C0803C910539
:1010E00008F474C1805C9109FBC0C11580E3D80786
:1010F00080F4C11520E2D20708F0F0C0C03FD1054E
:1011000008F464C1CF3FD10511F008F0ACC1D0653F
:10111000AAC1C11540E4D40708F0F0C0E5C0C1156C
:1011200089E5D80760F5C11528E5D20708F03AC16E
:10113000C11544E5D40778F4C11583E5D80708F054
:1011400015C1C11522E5D20708F0F9C0DC2FCC2764
:10115000C16FD06A88C1C11545E5D40708F41DC127
:10116000C11586E5D80708F031C18C2F0E94B40A5A
:101170008F71C82FD0E0DC2FCC27D06274C1CD3B5B
:101180002CE5D20709F419C1F0F4CB3B8CE5D80764
:1011900009F40DC108F00EC1C1154AE5D40708F0E5
:1011A00015C18C2F8F700E94B40A94E0D695C79514
:1011B0009A95E1F7CF70D0E0DC2FCC27D06A8F7002
:1011C000806EC82B50C1C03C8CE5D80709F4FBC029
:1011D00060F4CE3B4CE5D40709F4F2C0CF3BDC45CC
:1011E00009F0F4C0C0E0D2ED3EC1CE0190568115A9
:1011F000904208F0EBC08D2F8F710E94B40ADD275A
:10120000D0628F71D82B2FC1853A910509F4E1C0C6
:10121000863A910509F0E0C0C2E8D0E424C1883ADA
:10122000910509F4DCC0893A910509F4DBC08A3ADA
:10123000910509F4DAC08B3A910509F4D9C08C3ACA
:10124000910509F4D8C08B3B910509F4D7C08C3BBC
:10125000910509F4D6C08D3A910509F4D5C0803BBB
:10126000910509F4D4C08E3A910509F4D3C08F3AA0
:10127000910509F4D2C0813B910509F4D1C0823BAC
:10128000910509F4D0C0833B910509F4CFC0843B9C
:10129000910509F4CEC0853B910509F4CDC0863B8C
:1012A000910509F4CCC0873B910509F4CBC0883B7C
:1012B000910509F4CAC0893B910509F4C9C08D3B69
:1012C000910509F4C8C08E3B910509F4C7C08A3B5B
:1012D000910509F4C6C0C0E0D4E4C5C0CE019F703A
:1012E0000E943908EC01BFC0CE019927D3FF03C08B
:1012F000EC01D86CB8C0EC01D06CB5C0DF70D06A1E
:10130000B2C0282F237081E090E002C0880F991F9F
:101310002A95E2F79C689E01F4E036952795FA95A8
:10132000E1F72370922BCF70C695C695D0E0A5E06B
:10133000CC0FDD1FAA95E1F7C82BD92B94C02C2F19
:101340002695269530E075E0220F331F7A95E1F758
:10135000C370DD2781E090E002C0880F991FCA9515
:10136000E2F7E901C82BD92BDC687DC02C2F26952C
:10137000269530E065E0220F331F6A95E1F7C370D0
:10138000DD2781E090E002C0880F991FCA95E2F73F
:10139000E901C82BD92BDA6866C0DC2FCC27C46FD3
:1013A000D06A61C0DC2FCC27C06FD06A5CC0C0E0BF
:1013B000D4ED59C0C0E0D5ED56C0C0E0D1ED53C06A
:1013C000C0E0D0ED50C0C0E0D3ED4DC0C0E0D0E0F3
:1013D0004AC0C1E8D0E447C0C3E8D0E444C0C2EE8C
:1013E000D4E441C0C9EED4E43EC0CAEED4E43BC06C
:1013F000C5EBD4E438C0C6EBD4E435C0C3EBD4E4C9
:1014000032C0C4EBD4E42FC0C7EBD4E42CC0CCEC86
:10141000D4E429C0CDECD4E426C0C3E8D5E423C08D
:10142000CAE8D5E420C0C2E9D5E41DC0C4E9D5E4CA
:101430001AC0C1E2D6E417C0C3E2D6E414C0C4E2C5
:10144000D6E411C0C5E2D6E40EC0C6E2D6E40BC0B5
:10145000C7E2D6E408C0CFE6D4E405C0C0E7D4E4D0
:1014600002C0CAE2D6E4CE01DF91CF91089582385E
:10147000910549F1B0F48133910509F458C048F45D
:101480008932910509F44EC08A32910509F454C09D
:1014900008958533910509F440C08933910599F089
:1014A0000895833E910529F138F4803E910591F02D
:1014B000823E9105A1F00895863E9105F9F0873EA0
:1014C000910531F108952091090220FD3AC021FDD6
:1014D00038C008958091090280FD35C032C08091E6
:1014E000090282FF32C08091090284FD30C083EE80
:1014F00039C08091090282FD28C0F5CF8091090290
:1015000083FF27C08091090284FD21C087EE2AC095
:101510008091090283FD1DC0F5CF8091090285FDF0
:101520001AC01BC08091090285FD17C014C08091AC
:10153000090286FD14C015C08091090286FD11C004
:101540000EC080EE0FC089E30DC082EE0BC080E0BC
:1015500009C086EE07C089E205C085E303C08AE2C0
:1015600001C081E390E008959091090292FF0DC0BF
:10157000282F2871283019F4877F846006C0282F0F
:101580002471243011F48B7F886093FF0DC0282FC5
:101590002871283119F4877E846106C0282F2471B0
:1015A000243111F48B7E886194FD877E089508951F
:1015B0000C94D70A08950C94DA0AE82FF0E0E35A65
:1015C000FE4F80810895CF92DF92EF92FF920F93AA
:1015D0001F93CF93DF938CE691E00E9497048DE5F3
:1015E000E82E81E0F82EC0E0D0E097E6C92E91E029
:1015F000D92E0FE511E0DF93CF93DF92CF920E94B7
:10160000300584E691E00E949704F70181917F0103
:101610000E945A201F928F931F930F930E943005B0
:101620008DE591E00E94970421968DB79EB70896AC
:101630000FB6F8949EBF0FBE8DBFC530D105D9F649
:10164000DF91CF911F910F91FF90EF90DF90CF909E
:101650000895E1E2F1E041E050E025E02E0F9191A4
:10166000A92FA295AF70B0E091963C9191979F7091
:10167000BA0102C0660F771F9A95E2F7CB018095F9
:10168000832391968C932E13EACFADE1B1E041E034
:1016900050E024E02A0F8D91E82FE295EF70F0E002
:1016A00031A18F70BA0102C0660F771F8A95E2F7E9
:1016B000CB01962F9095932391A392A1892B82A37E
:1016C0002A13E9CFADE5B1E0E2E6F1E085E08E0F67
:1016D00011921D928E13FCCF85E00E94F80B0C94A2
:1016E00006066F927F928F929F92AF92BF92CF9297
:1016F000DF92EF92FF920F931F93CF93DF9361E2FC
:1017000071E0A2E6B1E0712C01E010E0D5E06D2EB1
:101710006A0E7D019C901C92EB018991BE01E82F1D
:10172000E295EF70F0E091A18F70A80101C0440F25
:101730008A95EAF7892F842B81A392A1842F809523
:10174000982392A3D0EADA95F1F7CDE1CC2EC1E04F
:10175000DC2E20E030E0E60199916E01A92EA294E2
:101760005FE0A522B12CE501A8A08C90B12C9F7060
:1017700002C0B594A7949A95E2F7A0FC07C0902FF9
:10178000022E01C0990F0A94EAF701C090E098294F
:101790009C932F5F3F4F24303105E9F691A18923B7
:1017A00081A382A1482B42A3119681E0F701908189
:1017B000991201C080E0782A6A12ABCF272D45E04C
:1017C0006DE571E082E691E00E94F90B0E947705D9
:1017D000872DDF91CF911F910F91FF90EF90DF90B8
:1017E000CF90BF90AF909F908F907F906F90089513
:1017F0000895FF920F931F93CF93DF938C01F62EE2
:10180000D72FC42F222349F081E0809369010E94E1
:10181000B9219093680180936701809169018823C1
:10182000C1F080916701909168010E94C5210697DF
:1018300080F0EF2DFD2FD8014C2F50E0CD01801B03
:10184000910B841795071CF48D918193F7CF10921B
:101850006901DF91CF911F910F91FF900895BF9281
:10186000CF92DF92EF92FF920F931F93CF93DF936C
:10187000382FC82EE82FF0E0711106C0E259FA4F58
:101880006491762F862F70C0C62FD0E0072F10E00E
:10189000CE0166E070E00E94D22AEE24EA94F12C98
:1018A000B7010E94EF2ADB01CB016BEA7FEF0E94B8
:1018B000D22ACC0FDD1F8C0F9D1FC82FCC0FC80F55
:1018C000C701801B910BBF010E94D22A492FB92E5C
:1018D000D0E0CE01B8010E94D22A692F70E0C70182
:1018E000861B970BBF010E94D22AD92EC7018C1BE1
:1018F0009D0BB8010E94D22A692F70E0C701861B98
:10190000970BBF010E94D22A892FA230B10579F02E
:101910003CF41097D1F01197B1F4932F3D2D15C0E1
:10192000A430B10561F03CF0169779F00CC0932F0C
:10193000342F482F0AC0342F4C2D9D2D06C0942FD4
:10194000432F382F02C09B2D4D2DE32FF0E0E2599D
:10195000FA4F7491E92FF0E0E259FA4F6491E42FC5
:10196000F0E0E259FA4F8491DF91CF911F910F91EE
:10197000FF90EF90DF90CF90BF9008950895CF93A0
:10198000DF93762FE901682F842F0E942F0C798333
:1019900068838A83DF91CF9108958091F401282F85
:1019A000269530E02115310519F48170826005C05B
:1019B0002532310524F0817088648093F401089504
:1019C00088E090E00C94D92BCF93DF9300D000D027
:1019D000CDB7DEB7AB01BC0149835A836B837C83EF
:1019E0000E94CD0C49815A816B817C8188E090E016
:1019F0000F900F900F900F90DF91CF910C94F72BD9
:101A0000E4EFF1E083E0808311828FEF82838383B0
:101A1000148260817181828193810C94E40C8091A5
:101A2000E40180FF08C080E494E09F938F930E94BC
:101A300030050F900F908091E40180FF0FC08091DE
:101A4000F40181701F928F9383E294E09F938F93B0
:101A50000E9430050F900F900F900F908091E4013D
:101A600080FF0FC08091F40186951F928F9388E0CC
:101A700094E09F938F930E9430050F900F900F90EA
:101A80000F908091E40180FF0EC08091F5011F92BC
:101A90008F938EEE93E09F938F930E9430050F906B
:101AA0000F900F900F908091E40180FF0EC0809105
:101AB000F6011F928F9384ED93E09F938F930E9482
:101AC00030050F900F900F900F908091E40180FFF0
:101AD0000EC08091F7011F928F938AEB93E09F9342
:101AE0008F930E9430050F900F900F900F90809170
:101AF000E40180FF0EC08091F8011F928F938EE960
:101B000093E09F938F930E9430050F900F900F905A
:101B10000F9008958091F40180FF02C0869508958A
:101B200080E008958091F801833018F48F5F8093EE
:101B3000F8016091F4017091F5018091F6019091A6
:101B4000F7010C94E40C8091F801882319F081507E
:101B50008093F8016091F4017091F5018091F60194
:101B60009091F7010C94E40CE0910401F0E0809175
:101B7000F40180FF0CC080916E0190E063E070E0A2
:101B80000E94D22ABF0187509E4F0C946C13209163
:101B90006D0130910301231770F7822F90E063E00D
:101BA00070E00E94D22ADC01A750BE4F11961C9211
:101BB00011971C9212961C922F5FEDCFA82FB62F73
:101BC0008091F40180FF16C020916D0130910301D6
:101BD000231770F4822F90E063E070E00E94D22A15
:101BE000FC01E750FE4FA183B08342832F5FF0CF0B
:101BF0000C94B40D0895CF93DF9300D01F92CDB70E
:101C0000DEB79091F40190FF0AC09E012F5F3F4F15
:101C10000E94BF0C4B8169818A810E94DE0D0F906A
:101C20000F900F90DF91CF910895CF93DF93EC0148
:101C3000EC81F0E0E759FB4F4491E4EFF1E0628181
:101C400081810E94FB0D8C818F5F8C83DF91CF910E
:101C50000895CF93DF93EC01E4EFF1E043816281DB
:101C60008C810E94FB0D8C818F5F8C83DF91CF91E3
:101C700008950F931F93CF93DF9300D01F92CDB79A
:101C8000DEB78C0180916A0181110AC09E012F5F2D
:101C90003F4F4FEF6FEF0E94BF0C8A8180936A0124
:101CA000F8018481813051F028F0823061F4409154
:101CB0006A010AC080916A0140E007C060916A0130
:101CC00040E080E003C040E080E060E00E94DE0D84
:101CD000F801248130E0C901019663E070E00E94C0
:101CE000032B84830F900F900F90DF91CF911F9162
:101CF0000F9108954F925F927F928F929F92AF9231
:101D0000BF92CF92DF92EF92FF920F931F93CF93E8
:101D1000DF9300D01F92CDB7DEB7182FD62E042F39
:101D2000B22E9091F40190FFA9C0E92FE695AE2F55
:101D3000B0E0AA5DBE4F8C91809376019E7F923079
:101D400061F49E012F5F3F4F812F0E94BF0C4B819A
:101D500069818A810E94DE0D5FC0823019F4009192
:101D6000F7015AC0863019F41091F50155C0893039
:101D7000D9F3893109F050C0E9518E2F80958170D7
:101D8000C82EE695F0E0E759FA4FE590F490712CF3
:101D9000FF2489EF882E81E0982E2091020172168F
:101DA000C8F5472C512CC201B7010E94D22A622FDC
:101DB00070E00E94EF2AA12ECC2011F0A60E01C0E7
:101DC000A61A8091E40180FF11C0FF92EF921F924A
:101DD000CF921F92AF921F927F929F928F920E94FA
:101DE00030050FB6F894DEBF0FBECDBF80916D01F8
:101DF0009201280F311DC90163E070E00E94D22AD0
:101E00009C0127503E4F402F6D2D8A2D0E94BF0C04
:101E10007394C3CF0E94B40D1093F501D092F601D4
:101E20000093F701BB20C9F06091F4017091F501B6
:101E30008091F6019091F7010E94E40C8091F701E6
:101E40001F928F938091F6011F928F938091F501DD
:101E50001F928F9384ED91E008C01F920F931F9201
:101E6000DF921F921F938DEA91E09F938F930E94C0
:101E700030050FB6F894DEBF0FBECDBF0F900F90A8
:101E80000F90DF91CF911F910F91FF90EF90DF9016
:101E9000CF90BF90AF909F908F907F905F904F902A
:101EA0000895E4EFF1E09181282F4381628188E079
:101EB000890F0C947A0E81E00C94510FE4EFF1E05D
:101EC0009181282F4381628188EF890F0C947A0ECB
:101ED00081E00C945E0FE4EFF1E0628121E1620F9A
:101EE00008F46FEF282F438181810C947A0E81E0F2
:101EF0000C946B0FE4EFF1E0628121E1621B08F4C6
:101F000060E0282F438181810C947A0E81E00C944B
:101F10007A0FE4EFF1E0438121E1420F08F44FEF43
:101F2000282F628181810C947A0E81E00C94890FB4
:101F3000E4EFF1E0438121E1421B08F440E0282F67
:101F4000628181810C947A0E81E00C94980F20E0DC
:101F50000C947A0EEF92FF921F93CF93DF93EC01D4
:101F600010E0EE24EA94F12C30910201131700F5F1
:101F700090916D01892F90E0810F911D63E070E0D9
:101F80000E94D22AFC01E750FE4F632F70E0C70188
:101F90000E94032B812F0E94C92A9C819F0140919E
:101FA000F7016091F601890F0E94BF0C1F5FDCCF23
:101FB0000E94B40D8A819C8180FF02C09F5F01C096
:101FC00091509C83DF91CF911F91FF90EF900895E6
:101FD000BF92CF92DF92EF92FF920F931F93CF9316
:101FE000DF93FC01828180FF02C0DFEF01C0D1E0FE
:101FF000C0E080910201C817E0F5CC2ED12C809171
:102000006D019601280F311DC90163E070E00E9447
:10201000D22A87509E4F7C01FC01118210821282CD
:1020200004E010E0B12C40916C014B0D47FF03C060
:1020300080910201480F042E000C550BC416D506E2
:1020400091F48091F70190E0B8010E94D22A959511
:102050008795959587959701482F6091F601809116
:10206000F5010E94BF0CBD0E01501109E1F6CF5FD2
:10207000C0CF0E94B40D80916C01D13031F4811138
:1020800002C080910201815007C090E001966091EA
:10209000020170E00E94032B80936C01DF91CF91CD
:1020A0001F910F91FF90EF90DF90CF90BF90089518
:1020B000CF9320916D0130910301231770F4822F8B
:1020C00090E063E070E00E94D22AFC01E750FE4FEE
:1020D0001182108212822F5FF0CFC0E06091020166
:1020E000C61798F5EC2FF0E070E0CF010E94032BAB
:1020F00090916D01980F20916B01022E000C330B13
:10210000892F90E063E070E00E94D22AE217F30783
:10211000A4F020910101022E000C330B2E173F0773
:1021200064F09C0127503E4F4091F7016091F60109
:102130008091F5010E94BF0C06C0FC01E750FE4FE4
:10214000118210821282CF5FC9CF0E94B40D2091FC
:10215000000180916B01820F80936B0190910101CE
:10216000920F9093010119165CF4082E000C990B44
:102170004091020150E041505109841795071CF02D
:10218000219520930001CF9108950F931F93CF9332
:102190008C01FC01248135812F5F3F4F2170332753
:1021A00035832483C0E080910201C817F8F4809140
:1021B0006D0190E08C0F911D63E070E00E94D22AC7
:1021C0009C0127503E4F4C2F4695F8018481958104
:1021D000840F911D817065E50E94C92A4091F70125
:1021E0006091F6010E94BF0CCF5FDDCFCF911F91B0
:1021F0000F910C94B40D0F931F93CF93DF93EC01C9
:1022000000E010E040910201842F90E008171907C8
:102210002CF580916D019801280F311DC90163E0F3
:1022200070E00E94D22A9C0127503E4F469550E014
:102230008C81041715071CF4882331F002C081112A
:1022400003C04091F70101C040E06091F601809128
:10225000F5010E94BF0C0F5F1F4FD4CF0E94B40D39
:102260002C8130E02F5F3F4F217033272C83DF918B
:10227000CF911F910F9108956091F401669570E0E0
:102280004BE050E085E091E00E94C42B892B19F4CB
:1022900081E0809377010E94B9219093700180932F
:1022A0006F018091E40180FF08C084E991E09F9371
:1022B0008F930E9430050F900F9008951092770130
:1022C0008091E40180FF08C08BE791E09F938F939A
:1022D0000E9430050F900F9008959091F40190FFA7
:1022E0004CC09170811102C0926006C0853210F01E
:1022F000986402C0880F982B9093F401662391F0A4
:102300006091F4017091F5018091F6019091F701CF
:102310000E94E40C8091F40186951F928F9384EEC5
:1023200092E007C08091F40186951F928F9386EC0E
:1023300092E09F938F930E9430050F900F900F9023
:102340000F906091F401669570E04BE050E085E0FD
:1023500091E00E94C42B892B19F00E945E1102C0EB
:102360000E943C1181E0809372014091F7016091DD
:10237000F6018091F5010C94A70F0895682F9091B4
:10238000F401969581E0890F853208F081E00C9484
:102390006D1181E00C94BE11682F9091F401969517
:1023A0008FEF890F09F484E20C946D1181E00C9495
:1023B000CC1161E00C946D11CF93DF93C4EFD1E0A9
:1023C0008881816088831F9281E08F9388E592E005
:1023D0009F938F930E9430050F900F900F900F9056
:1023E00088818695DF91CF910C94D91160E00C948F
:1023F0006D1180917501811161C08091E40181604E
:102400008093E40187E893E09F938F930E943005C7
:102410008091E4010F900F9080FF08C081E793E066
:102420009F938F930E9430050F900F900E946C2015
:10243000811110C08091E40180FF08C089E493E01D
:102440009F938F930E9430050F900F900E94EF2072
:102450000E94000D0E94E00C6093F4017093F5015E
:102460008093F6019093F7016E7FC1F48091E401AF
:1024700080FF08C080E093E09F938F930E94300517
:102480000F900F900E94000D0E94E00C6093F401E9
:102490007093F5018093F6019093F7010E94CD0CA3
:1024A0000E940F0D109277018091F40180FF03C00C
:1024B00086950E94F61181E0809375010895CF936F
:1024C000DF93C4EFD1E088818E7F88836881798132
:1024D0008A819B810E94E40C888181701F928F9376
:1024E00080E292E09F938F930E9430050E945E11DC
:1024F0002FEF80E792E0215080409040E1F700C04C
:1025000000000F900F900F900F90DF91CF910C94DF
:10251000B40D8091F401809581701F928F938FE8A4
:1025200092E09F938F930E9430058091F4010F9069
:102530000F900F900F9080FD0C945F120C94DC11A3
:102540000F931F93CF93DF9380917701882309F432
:102550008CC080917601E091F401E695E81BE09350
:102560007101823049F4F0E0EB59FB4FE491CE2F3A
:10257000D0E005E11EE049C0863049F4F0E0EE59B4
:10258000FB4FE491CE2FD0E009E21EE03EC089303F
:1025900051F4E695F0E0E15AFB4FE491CE2FD0E004
:1025A0000AEA1FE032C08F3051F4E695F0E0E45AB9
:1025B000FB4FE491CE2FD0E008EE1FE026C085311E
:1025C00049F4F0E0E75AFB4FE491CE2FD0E008E564
:1025D00010E11BC0883181F0833239F4E7E5F4E083
:1025E000C591D49109E31EE010C0843251F4C4EFC8
:1025F000D1E00BEF10E109C0C8EED3E005EC10E12B
:1026000004C0C0EDD7E00EEB1CE08091720188237E
:1026100089F0109272010E94B9219E012095309597
:10262000820F931F9093700180936F011092740139
:102630001092730180916F01909170010E94C521E9
:102640008C179D0790F0E0916F01F0917001CE0F13
:10265000DF1FD0937001C0936F018FE691E0F80106
:10266000DF91CF911F910F910994DF91CF911F912D
:102670000F9108952BB1342F309523233BB1432B79
:102680003FB7F894FC01680F791FE617F70789F048
:10269000819198E04BB9000000C087FF2BB9880FEB
:1026A000000000C000C000C02BB900C09A9591F78F
:1026B000ECCF3FBF08952AB1242B2AB99B01220FEA
:1026C000331F620F731F0E943A1387EC90E001974B
:1026D000F1F700C00000089548E00C945B130F93DD
:1026E0001F93CF93DF93C62FD42F022FFC0182813B
:1026F0008823C9F060937A010E94B92190937901EF
:102700008093780180E28C0F883008F050C0C77049
:1027100081E001C0880FCA95EAF7DF91CF911F9140
:102720000F910C94471710917A01161330C08091C5
:102730007801909179010E94C521883C910538F576
:10274000C0E2CD0F1D17B9F080E2810F883040F450
:10275000177081E001C0880F1A95EAF70E944E17A2
:10276000C83048F481E09D2F977001C0880F9A957A
:10277000EAF70E944717802F0E943417C830B8F438
:10278000D77081E001C0880FDA95EAF70AC080E2CD
:102790008C0F883060F4C77081E001C0880FCA9543
:1027A000EAF7DF91CF911F910F910C944E17DF91B3
:1027B000CF911F910F9108959C01CB01203F4CE5D3
:1027C0003407F9F078F4283DFCE53F07B9F0293DDE
:1027D0004CE5340711F1273D3C4531F526E241EE49
:1027E00061EE1EC0223FFCE53F0799F070F0233FE9
:1027F0003C45D1F427E245EE66EE12C027E245EEF5
:102800000EC026E241EE60EE0BC027E245EE64EE1C
:1028100007C026E241EE62EE03C028E241E065EE29
:102820000E946F1380E00895FC018281882319F0D3
:1028300010927A01089581E0089590938001809329
:102840007F010895E0917F01F0918001309721F0A0
:102850000190F081E02D099480E00895EF92FF92BD
:102860000F931F93CF93DF93E0917F01F09180014D
:102870003097B1F18C010280F381E02D09958091B0
:10288000E40182FF2DC080FF04C086E796E00E942D
:102890009704E80118E080E7E82E86E0F82E8091A2
:1028A000E40180FF0BC088811F928F93FF92EF920B
:1028B0000E9430050F900F900F900F9011502196AD
:1028C0001111EDCF8091E40180FF0AC08EE696E001
:1028D000DF91CF911F910F91FF90EF900C9497048F
:1028E000DF91CF911F910F91FF90EF90089520916C
:1028F0007D0130917E018217930771F090937E01E4
:1029000080937D01E0917F01F0918001309721F06B
:102910000680F781E02D0994089520917B01309184
:102920007C018217930771F090937C0180937B0167
:10293000E0917F01F0918001309721F00084F185D2
:10294000E02D09940895089508950C94A414089511
:102950000C94A7140E94A3140C94A51481E008956C
:102960000E94B0210E94290B0E9439220E9452220B
:102970000E94F9110C94A814CF93C82F8091E40100
:1029800082FF1EC080FF04C08FE896E00E9497047B
:102990008091E40180FF0CC01F92CF938AE896E0FB
:1029A0009F938F930E9430050F900F900F900F9080
:1029B0008091E40180FF04C088E896E00E949704BB
:1029C0008C2FCF910C941306CF92DF92EF92FF924F
:1029D0000F931F93CF93DF93CDB7DEB72B970FB62F
:1029E000F894DEBF0FBECDBF0E94710B0E94AE14E3
:1029F000811111C08FEF89838A831B820E94B921C4
:102A00008160782F9D838C8349815A816B818D8170
:102A10000E948A1556C082E8C82E81E0D82E00E0B8
:102A200010E0E02E802F0E94DD0AF60141916F0137
:102A3000F42EF82631F40F5F1F4F0530110589F78A
:102A4000D9CF9091E40191FF04C08B870E94E30AE3
:102A50008B8520E030E04F2D50E0922FBA01022EFE
:102A600002C0759567950A94E2F760FF24C02E8333
:102A7000EF8221E030E0690102C0CC0CDD1C9A95A8
:102A8000E2F790E08C219D21892B09F420E0288732
:102A90000E94B9218160782F9A8789874E815F8152
:102AA00068858A850E948A15F801EE57FE4F80815D
:102AB000C826C08206C02F5F3F4F2430310569F61B
:102AC000BACF109181010E9422141817A1F00E9420
:102AD0002214809381012B960FB6F894DEBF0FBEAF
:102AE000CDBFDF91CF911F910F91FF90EF90DF90BD
:102AF000CF900C94BC142B960FB6F894DEBF0FBE8B
:102B0000CDBFDF91CF911F910F91FF90EF90DF909C
:102B1000CF900895CF93DF93CDB7DEB72B970FB645
:102B2000F894DEBF0FBECDBF4F83588769877A8781
:102B30008B87DE01119686E0FD0111928A95E9F7F7
:102B400085E0FE01379601900D928A95E1F7498163
:102B50005A816B817C818D819E810E94961C2B966F
:102B60000FB6F894DEBF0FBECDBFDF91CF910895B1
:102B7000FC01808191810E94661F0895882309F4D9
:102B800013C1682F8238C1F40E94221481FD0CC148
:102B900069E380911001909111010E9423210E940C
:102BA000F11F2FEF81EE94E0215080409040E1F73B
:102BB00000C0000069E319C08338F9F40E942214B0
:102BC00080FDF2C063E580911001909111010E9497
:102BD00023210E94F11F2FEF81EE94E021508040CD
:102BE0009040E1F700C0000063E5809110019091F2
:102BF00011010E9425210C94F11F8438C1F40E9418
:102C0000221482FDD1C067E48091100190911101DE
:102C10000E9423210E94F11F2FEF81EE94E02150AA
:102C200080409040E1F700C0000067E4DECF8CEF09
:102C3000860F813A38F480911001909111010E9421
:102C40002321D9CF80E2860F883048F4677081E075
:102C500001C0880F6A95EAF70E94A81FCCCF8BE5C8
:102C6000860F833070F4653A29F0663A31F083E8D4
:102C700090E005C081E890E002C082E890E00C940A
:102C8000771488E5860F873108F08EC0683A09F41A
:102C900045C0693A09F445C06A3A09F445C06B3A3F
:102CA00009F445C06C3A09F445C06B3B09F445C0D2
:102CB0006C3B09F445C06D3A09F445C0603B09F42A
:102CC00045C06E3A09F445C06F3A09F445C0613B0E
:102CD00009F445C0623B09F445C0633B09F445C0B3
:102CE000643B09F445C0653B09F445C0663B09F403
:102CF00045C0673B09F445C0683B09F445C0693BE2
:102D000009F445C06D3B09F445C06E3B09F445C06C
:102D10006A3B09F445C080E090E044C082EE90E058
:102D200041C089EE90E03EC08AEE90E03BC085EB6A
:102D300090E038C086EB90E035C083EB90E032C085
:102D400084EB90E02FC087EB90E02CC08CEC90E0FF
:102D500029C08DEC90E026C083E891E023C08AE88A
:102D600091E020C082E991E01DC084E991E01AC0A1
:102D700081E292E017C083E292E014C084E292E024
:102D800011C085E292E00EC086E292E00BC087E2BD
:102D900092E008C08FE690E005C080E790E002C0B6
:102DA0008AE292E00C948D140895882309F45BC0A4
:102DB000682F823879F40E94221481FF54C069E39D
:102DC00080911001909111010E9423210E94F11F16
:102DD00069E310C08338B1F40E94221480FF43C01D
:102DE00063E580911001909111010E9423210E94BE
:102DF000F11F63E580911001909111010E9425213E
:102E00000C94F11F843879F40E94221482FF2BC0A5
:102E100067E480911001909111010E9423210E948A
:102E2000F11F67E4E7CF8CEF860F813A18F380E259
:102E3000860F883048F4677081E001C0880F6A957A
:102E4000EAF70E94AE1FDCCF8BE5860F833020F4BB
:102E500080E090E00C947714685A673120F480E0A9
:102E600090E00C948D140895CF93C82F0E94BE1546
:102E7000C93349F42FEF83EC99E021508040904012
:102E8000E1F700C000008C2FCF910C94D516882359
:102E900021F00E94A81F0C94F11F0895882321F0AF
:102EA0000E94AE1F0C94F11F08954F925F926F9293
:102EB0007F92BF92CF92DF92EF92FF920F931F9378
:102EC000CF93DF937C01062FC72FFC01158112954C
:102ED0001F70D281D1110E94C51F0E949E1F88239E
:102EE00079F0DD2369F080E2800F883048F082E0DD
:102EF0000E943C200E949E1F91E0B82EB92601C07E
:102F0000B12CCC2EC2948FE0C822D12CF601E45B08
:102F1000FF4F0C94392B8C2F807FCF70882311F0BA
:102F2000C295C07FDD2399F0CC2309F482C180E2F1
:102F3000800F883010F0011104C08C2F0E94A81F50
:102F400003C08C2F0E94B81F0E94F11F72C1802FF6
:102F50000E94D516CC2309F4B5C180E2800F8830D9
:102F600010F0011104C08C2F0E94AE1F03C08C2FE3
:102F70000E94BE1F0E94F11FA5C18C2F807FCF70C1
:102F8000803211F0C295C07F002319F00130C9F0E2
:102F900022C0DD2371F0112341F0113031F40E9481
:102FA000D81F8C2B0E94DE1F8DC10E94D81F8C2B36
:102FB0001DC0112319F0113009F484C10E94E71FCC
:102FC0001AC0DD2321F0163008F07CC10EC0153088
:102FD00008F078C110C0DD2361F0112331F0F70152
:102FE000858180FF26C18F7085838C2F0E944717B3
:102FF00069C111112FC18C2FDAC08C2F869586954F
:10300000837090E0009719F0019761F05BC1DD23B8
:1030100021F0802F9C2F937002C080E090E00E94EE
:10302000771460C1DD2321F0802F9C2F937002C0A4
:1030300080E090E00E948D1455C18C2F837009F0C0
:103040004BC0D1114BC1202F229526952770220FFE
:10305000220F602F6F70862F90E0A0E0B0E02C016F
:103060003D01022E04C0440C551C661C771C0A94BA
:10307000D2F704FF10C08FE090E0A0E0B0E004C001
:10308000880F991FAA1FBB1F2A95D2F7809590958C
:10309000A095B09503C080E090E0DC01C695C69590
:1030A000C370D0E0BC01CD01642975298629972918
:1030B000C230D10559F0C330D10559F0219719F02C
:1030C0000E94DF1D0BC10E94CD1D08C10E94F11D91
:1030D00005C10E94CB1D02C1DD2319F08C2F817028
:1030E00001C08695882309F4F9C0202F22952695E2
:1030F0002770220F220F602F6F70862F90E0A0E0C4
:10310000B0E02C013D01022E04C0440C551C661C8D
:10311000771C0A94D2F704FF10C08FE090E0A0E083
:10312000B0E004C0880F991FAA1FBB1F2A95D2F7D1
:1031300080959095A095B09503C080E090E0DC016B
:10314000C695C695C370D0E0BC01CD016429752930
:1031500086299729C230D10559F0C330D10559F0DD
:10316000219719F00E94A51EB9C00E94931EB6C0F7
:103170000E94B71EB3C00E94061EB0C0802F90E010
:10318000FC01E05EF109E531F10508F04EC0E45ABA
:10319000FF4F0C94392B0F708C2F8F71DD2321F092
:1031A0000E942C1E802F22CF0E944D1E802F0E9435
:1031B0004E1788C0DD2341F0153008F083C08C2FF6
:1031C0008F710E94721E7EC0163008F07BC0F7CF50
:1031D000DD2339F08C2F8F710E942C1E73C0DD23EC
:1031E000C9F38C2F8F710E944D1E6CC0DD2329F016
:1031F0008C2F8F710E94171E65C00E94121E62C024
:10320000DD2349F0CF718C2F0E942C1E63E08C2FA0
:103210000E94272057C081E00E943C20123008F411
:1032200051C082E00E943C204DC0DD2331F01123CB
:1032300089F2802F0E94BE1545C0112391F20933F7
:1032400049F4FFEF23EC89E0F15020408040E1F7A2
:1032500000C00000802F0E94D51634C04C2F4F7044
:10326000602FC7010E941F080E943E1D3BC0D11164
:1032700039C0CF70D0E0C230D10599F03CF420972E
:1032800069F02197F9F40E949F222CC0C430D10527
:1032900071F054F02597B1F480E00AC00E946F22CB
:1032A00021C00E9409231EC00E9425231BC08AE062
:1032B0000E945B2317C04C2F4F70602FC7010E94E4
:1032C000220810C098E0C916D10441F05CF0FAE081
:1032D000CF1AD10822E0C216D10420F40E94221491
:1032E0000E941306BB20F1F00E949A1F80FD1AC0B5
:1032F000F70112820E94941F0E942C1EC7010E9497
:10330000A0190E94941FDF91CF911F910F91FF9000
:10331000EF90DF90CF90BF907F906F905F904F9035
:103320000C944D1EDF91CF911F910F91FF90EF9064
:10333000DF90CF90BF907F906F905F904F900895F7
:103340000F931F93CF93DF93EC01888199812B8199
:103350003C81232BB9F09F3F11F48F3F99F0CE01B0
:103360000E942506882371F0688179818A810E94F4
:10337000711F8C010E94C91E0E94CA1DB801CE0196
:103380000E945517DF91CF911F910F9108950E94D0
:10339000C51F0E94D51F0E94F11F80E090E00E948F
:1033A000771480E090E00C948D148091100190913E
:1033B00011010E9427210C94C7190E94B51F0C947B
:1033C000D519E92FE295EF70F0E03297EE30F10574
:1033D000B0F4EF58FF4F0C94392B803F91F018F464
:1033E000803E68F40EC0843F51F40BC0803E48F02C
:1033F000813F29F406C093FB882780F9089580E077
:10340000089581E008950E94661F0E94E1190895C1
:10341000CF93DF9300D000D01F92CDB7DEB70F90CF
:103420000F900F900F900F90DF91CF910895CF9351
:10343000DF9300D000D000D0CDB7DEB726960FB610
:10344000F894DEBF0FBECDBFDF91CF910895CF932B
:10345000DF93C091880180918901C817A1F0D0E065
:10346000CE0166E070E00E94D22AFC01E657FE4FD2
:103470004081518162817381848195810E94171AF4
:103480002196C770E8CFDF91CF9108954091BA019E
:103490005091BB016091BC017091BD018091BE0152
:1034A0009091BF010C94171ACF93DF938091BF01C5
:1034B00082958F7009F05CC08091BC01882309F46B
:1034C00057C020918801D09189014091BA01C091E3
:1034D000BB01E091BD01F091BE012D1709F448C078
:1034E00030E0309709F440C0CF3F11F44F3FE1F195
:1034F000C90166E070E00E94D22ADC01A657BE4FE7
:1035000011968C911197C8132FC08C9148132CC021
:1035100012968C911297811127C013968D919C91D0
:1035200014978E179F0708F401978E1B9F0B883CFA
:103530009105D0F48091BF018F7080618093BF01AD
:10354000C90166E070E00E94D22AFC01E157FE4FFB
:1035500090819F70906190838AEB91E00E94A01906
:10356000DF91CF910C94271A2F5F3F4F2770B5CF73
:10357000DF91CF910895BF92CF92DF92EF92FF92A9
:103580000F931F93CF93DF93CDB7DEB761970FB63D
:10359000F894DEBF0FBECDBF8C0185E0F801DE01DF
:1035A0001D9601900D928A95E1F7D8014C911196E4
:1035B0002C9111971296EC9012971396CD90DC9067
:1035C00014975091BA016091BB018091BD01909117
:1035D000BE01009709F46EC16F3F19F45F3F09F413
:1035E00069C1B090BC01BB2009F4C3C03091BF01D8
:1035F000C816D90628F0F601E81BF90BCF0104C064
:10360000809590958C0D9D1DFF24F394883C910529
:1036100088F0F12C307F09F0CBC07C2DD98AC88A84
:10362000522F6E2D89890E94081A8AEB91E00E9420
:10363000A019B4C0832F807F09F049C0621314C061
:10364000541312C0E11010C03F7030613093BF01BD
:103650000E94461A8AEB91E00E94A0198091BF0156
:10366000D80115968C9331C0CD2831F12F3F11F43C
:103670004F3F11F1FE2CE1101FC0E0918801309105
:103680008901E31709F45CC0F0E0CF0166E070E067
:103690000E94D22ADC01A657BE4F11968C91119739
:1036A000281307C08C91481304C012968C91811185
:1036B00003C03196E770E5CFFE2CEE2009F425C15A
:1036C0008091BF0181608093BF01F12C1EC1621304
:1036D00008C0541306C0E11004C08091BF01D80196
:1036E000C1C04D872E878D859E850E94031A882331
:1036F000E1F1EE20D1F12091BF01822F82958F70F0
:1037000090E0029774F08091BA019091BB01988784
:103710008F831986DB86CA862C87CE0107960E9486
:10372000A01986E0F801AAEBB1E001900D928A950C
:10373000E1F70E94541A0E94461AFF24F394E5C050
:103740004D872E878D859E850E94661F292F229585
:103750002F7030E0223031050CF0CBC09F7009F0A3
:10376000C5C0805E883008F4D0C0C8010E94A0198E
:10377000E4CFC816D90608F453C0F601E81BF90BCC
:10378000CF01883C910508F450C0F12C7C2DD98ADA
:10379000C88A522F6E2D89890E94081AEAEBF1E03F
:1037A00086E0DF011D928A95E9F70E94461AADC0B6
:1037B000621314C0541312C0E11010C08091BF01F5
:1037C000F8018583C8010E94A01986E0EAEBF1E0C8
:1037D000DF011D928A95E9F7FB2C97C04D872E8754
:1037E0008D859E850E94031A882309F4BECFEE20A2
:1037F00009F4BBCF2091BF01822F82958F7090E09A
:1038000002970CF48ECF8091BA019091BB019A83FC
:1038100089831B82DD82CC822E83CE0101967FCFED
:10382000809590958C0D9D1DACCFFE2CEE2009F45B
:103830009CCF62132EC054132CC02091BF0120FDD9
:103840001FC0822F82958F70D9F0D80115962C93C6
:1038500015978F3049F08F5F982F9295907F822F28
:103860008F70892B15968C93C8010E94A01986E051
:10387000F801AAEBB1E001900D928A95E1F795CF9E
:1038800086E0F801AAEBB1E001900D928A95E1F78C
:103890003CC04D872E878D859E850E94031A81111D
:1038A00040CF8091BF0181608093BF01C8010E9419
:1038B000A0192BC0EE2009F458CF4D872E878D8597
:1038C0009E850E94031AF82E882309F44ECF86E0C5
:1038D000F801AAEBB1E001900D928A95E1F78AEB2D
:1038E00091E00E94B8150E94541A5FCF811139CF20
:1038F0000CC0243031050CF038CF9F7009F431CF63
:10390000F8019581907F09F02CCF8F2D61960FB62D
:10391000F894DEBF0FBECDBFDF91CF911F910F9105
:10392000FF90EF90DF90CF90BF900895CF93DF93FB
:10393000CDB7DEB72C970FB6F894DEBF0FBECDBF64
:103940004F83588769877A878B879C87CE01079634
:103950000E94BB1A882371F08F8198852A853B8548
:10396000232B09F43FC09F3F09F068C08F3F09F047
:1039700065C038C086E0FE013796DE0111960190E1
:103980000D928A95E1F76F817885EA85FB853097FE
:1039900049F17F3F11F46F3F29F18091890190E057
:1039A0009C012F5F3F4F277033274091880150E0E3
:1039B0002417350709F44BC069837A83FD83EC83B0
:1039C00066E070E00E94D22ADC01A657BE4F96E066
:1039D000FE01319601900D929A95E1F720938901AD
:1039E0000E94271A80918801909189018917E9F135
:1039F00090E066E070E00E94D22A86579E4F0E94B7
:103A0000BB1A882391F18091880190E066E070E014
:103A10000E94D22AFC01E657FE4F4081518162810B
:103A20007381848195810E94171A8091880190E0AA
:103A300001968770992780938801D4CF4F8158854C
:103A400069857A858B859C850E94171ACBCF0E9449
:103A5000DD191092890110928801EAEBF1E086E00D
:103A6000DF011D928A95E9F7BDCF2C960FB6F89429
:103A7000DEBF0FBECDBFDF91CF910895EF92FF92D1
:103A80000F931F93CF93DF938C01892B09F46CC0A4
:103A9000F12CEE24E394E8012196F8018491843717
:103AA00040F4843008F051C0813081F0823019F147
:103AB0005BC0853709F444C0A8F19CE7980F9037A4
:103AC00008F052C08F770E94D51641C00E5F1F4F7D
:103AD000FE01C49180E28C0F883048F4C7708E2DAF
:103AE00001C0880FCA95EAF70E94C81F14C08C2F26
:103AF0000E94BE152DC00E5F1F4FFE01C49180E2D3
:103B00008C0F883058F4C7708E2D01C0880FCA956D
:103B1000EAF70E94CE1F0E94F11F1AC08C2F0E944C
:103B2000D51616C00E5F1F4FFE01C491CC2381F045
:103B30008FE99FE00197F1F700C00000C150F6CF78
:103B40000E5F1F4FFE01F49003C00E94BE158E0150
:103B50008F2D882309F49FCFEFE9FFE03197F1F72C
:103B600000C000008150F5CFDF91CF911F910F91E0
:103B7000FF90EF90089508950C94BB1D0E94BC1D0A
:103B80006093D3017093D4018093D5019093D601B3
:103B90000C94C71908950C94BE1D0F931F930091A8
:103BA000D3011091D4012091D5013091D601602B21
:103BB000712B822B932B1F910F910C94BE1D0F9391
:103BC0001F930091D3011091D4012091D501309120
:103BD000D60160237123822393231F910F910C94AC
:103BE000BE1D0F931F930091D3011091D40120911A
:103BF000D5013091D60160277127822793271F9125
:103C00000F910C94BE1D08950C94031E0E94041E77
:103C10006093CF017093D0018093D1019093D20132
:103C20000C94C71960E070E0CB010C94061E0F9352
:103C30001F9341E050E060E070E08A019B0104C006
:103C4000000F111F221F331F8A95D2F7C901B80137
:103C50001F910F910C94061E0F931F9341E050E0AB
:103C600060E070E004C0440F551F661F771F8A95FF
:103C7000D2F78091CF019091D001A091D101B09164
:103C8000D2018A019B01082B192B2A2B3B2BC9013E
:103C9000B8011F910F910C94061E0F931F9341E0E2
:103CA00050E060E070E004C0440F551F661F771FAE
:103CB0008A95D2F740955095609570958091CF0187
:103CC0009091D001A091D101B091D2018A019B01C4
:103CD000082319232A233B23C901B8011F910F91FF
:103CE0000C94061E0F931F9341E050E060E070E0DB
:103CF00004C0440F551F661F771F8A95D2F7809125
:103D0000CF019091D001A091D101B091D2018A014F
:103D10009B01082719272A273B27C901B8011F91B2
:103D20000F910C94061E0F931F930091CF011091D9
:103D3000D0012091D1013091D201602B712B822BC7
:103D4000932B1F910F910C94061E0F931F930091BC
:103D5000CF011091D0012091D1013091D201602387
:103D60007123822393231F910F910C94061E0F93AE
:103D70001F930091CF011091D0012091D10130917A
:103D8000D20160277127822793271F910F910C94EE
:103D9000061E0895262F990F990F890F982F977057
:103DA000A1E001C0AA0F9A95EAF7869586958695B7
:103DB00090E065E070E00E94D22AFC01E054FE4FE2
:103DC00040E050E0622F70E090819B01042E02C021
:103DD000369527950A94E2F72170332721952927F4
:103DE0002A23292721934F5F5F4F4530510561F703
:103DF0000895990F990F890FA82FA770869586951A
:103E0000869590E065E070E00E94D22ABC0140E017
:103E100050E080E0FA01E60FF71FE054FE4F2081EA
:103E200030E00A2E02C0369527950A94E2F72170F9
:103E30003327042E01C0220F0A94EAF7822B4F5F2A
:103E40005F4F4530510531F70895BF92CF92DF9211
:103E5000EF92FF920F931F93CF93DF938C01C0904B
:103E6000D301D090D401E090D501F090D60180919B
:103E7000CF019091D001A091D101B091D201C82A77
:103E8000D92AEA2AFB2ACFE1D0E0D701C6010C2EBD
:103E900004C0B695A795979587950A94D2F780FFA9
:103EA00007C0BC2EB8018C2F0E944108019719F45D
:103EB000219758F7B12C8B2DDF91CF911F910F9146
:103EC000FF90EF90DF90CF90BF900895CF93DF9356
:103ED000EC010E94251FBE010E944108DF91CF9195
:103EE00008951F93CF93DF93EB019091870199235E
:103EF00021F0CB010E94661F13C0882349F0CB013B
:103F00000E94251F182F682FCE010E94CA1E04C0D0
:103F1000CB010E94F91E182FBE01812F0E9441087B
:103F2000DF91CF911F9108958091D7018595859557
:103F3000859508958091D701877008959091D70154
:103F4000977081E009F480E008958091E30108957D
:103F50009091E301892B8093E301089580959091DE
:103F6000E30189238093E30108951092E30108950A
:103F70009091E201892B8093E201089580959091C0
:103F8000E20189238093E20108951092E2010895ED
:103F90009091E101892B8093E101089580959091A2
:103FA000E10189238093E10108951092E1010895D0
:103FB0008091D801089508950C94DB1F9091D80149
:103FC000981721F08093D8010C94DC1F08958091FC
:103FD000D801882329F01092D80180E00C94DC1FCE
:103FE0000895E0911001F09111018091E301808327
:103FF000E0911001F091110190818091E201892BF3
:104000008083E0911001F091110190818091E10194
:10401000892B80838091D801882381F0E091100161
:10402000F09111019081892B8083809110019091F2
:1040300011010E94F12081110E94E71F809110015F
:10404000909111010C942E1408950C942420982F13
:10405000990F990F990F692B6093D7010E942C1E1D
:104060008091D7018595859585950C942520109292
:10407000D70180E00C9425202091D70180958223E0
:104080008093D701982F977079F430E0482F082E4D
:10409000000C550B2417350739F0859585958595C6
:1040A0000E944D1E0C943720089590935B018093DD
:1040B0005A0108958295982F9C7C292F2695269544
:1040C000982F9373990F990F922B892F8A7A86953F
:1040D0009575990F892B089580E090E00E94DF2B61
:1040E00021E08D3E9E4F09F020E0822F089582E06E
:1040F00090E00C94D12B83E090E00C94D12B84E0E1
:1041000090E00C94D12B682F84E090E00C94E52B88
:1041100086E090E00C94D12B682F86E090E00C9420
:10412000E52BAB01BC018FE090E00C94F72BAB01C9
:10413000BC0183E190E00C94F72B60E070E0CB01D0
:104140000C94972060E070E0CB010E9491200C94C9
:104150009D206DEE7EEF80E090E00E94032C60E0F9
:1041600082E090E00E94E52B60E083E090E00E9416
:10417000E52B1092D3011092D4011092D501109228
:10418000D60160E084E090E00E94E52B60E085E0ED
:1041900090E00E94E52B60E086E090E00E94E52B35
:1041A0006FEF87E090E00E94E52B40E050E0BA011D
:1041B00088E090E00E94F72B60E08DE090E00E94A4
:1041C000E52B40E050E0BA0188E190E00E94F72B37
:1041D00060E087E190E00E94E52B0C94A2200C9413
:1041E000A920FC01329697E080E0915029F02191BE
:1041F0002223D9F38F5FF9CF08959C01FC013296F9
:104200009FEF80E04191461789F09F3F19F44111DB
:1042100001C0982F8F5F8630A9F79F3F39F0F901D1
:10422000E90FF11D97FDFA95628308950895FC0149
:10423000329608962081261301C010823196E81725
:10424000F907C1F708950C94FD200C9417210296EC
:1042500026E0FC0111922A95E9F7089508950C943F
:104260002E210E942F2180911002843061F1109242
:10427000E50120E488E190E00FB6F894A8958093DA
:1042800060000FBE2093600080E00E948A0580E0FD
:104290000E9413060E942F2183B7817F846083BF11
:1042A00083B7816083BF7894889583B78E7F83BFFF
:1042B0000FB6F894A89580916000886180936000A3
:1042C000109260000FBE089508950895CF930E9444
:1042D00064210E94710B0E946521C0E08C2F0E9416
:1042E000DD0A811104C0CF5FC530C1F701C081E094
:1042F000CF91089508950C947A210E94DD190E94AF
:1043000052220E9422140E9413060C947B211F92B9
:104310000F920FB60F9211248F939F93AF93BF9379
:104320008091E501811113C08091050290910602F0
:10433000A0910702B09108024196A11DB11D809382
:10434000050290930602A0930702B0930802BF9162
:10435000AF919F918F910F900FBE0F901F90189566
:1043600082E084BD93E095BD9AEF97BD80936E0087
:1043700008952FB7F8948091050290910602A091BC
:104380000702B09108022FBF0895CF92DF92EF92FB
:10439000FF920F931F932FB7F8944091050250910D
:1043A000060260910702709108022FBF6A017B012B
:1043B000EE24FF248C0120E030E0C016D106E20696
:1043C000F30610F4415051099A01281B390BC90119
:1043D0001F910F91FF90EF90DF90CF900895789408
:1043E0001F920F920FB60F9211248F939F93AF934A
:1043F000BF938091050290910602A0910702B091AF
:1044000008020196A11DB11D80930502909306023A
:10441000A0930702B0930802BF91AF919F918F9133
:104420000F900FBE0F901F90189581E08093E000D1
:1044300080E28093D8001092C9008FE19EE401973A
:10444000F1F700C0000087E090EBDC0180931902D7
:1044500090931A02A0931B02B0931C029CE088E187
:104460000FB6F894A895809360000FBE90936000FB
:10447000FFCF0E946C20811102C00E94EF200E9499
:1044800077208093E4010E947F2090E090930A02BD
:10449000809309020E947B20682F70E080E090E00A
:1044A0000C94CB1D0E946C20811102C00E94EF2051
:1044B0000E94882080930B02282F269530E02B3015
:1044C000310524F08170846180930B0280910B028E
:1044D00080FF02C0869501C080E00C948A0520917F
:1044E0000B02822F8695482F50E04A30510544F444
:1044F0008F5F982F990F822F8170892B80930B02E9
:1045000080910B02816080930B020E948C2080912D
:10451000E40180FF0FC080910B0286951F928F935C
:1045200089E097E09F938F930E9430050F900F9042
:104530000F900F9080910B0286950C948A058091C4
:104540000B02982F969591F09158990F8170892BB5
:1045500080930B028E7F91E009F490E080910B0232
:1045600090FB80F980930B020E948C208091E401E3
:1045700080FF0FC080910B0286951F928F9381EF71
:1045800096E09F938F930E9430050F900F900F90AD
:104590000F9080910B0286950C948A0580910B02F6
:1045A00080FD1DC0816080930B02813019F483E08F
:1045B00080930B0280910B020E948C208091E40179
:1045C00080FF08C089EC96E09F938F930E9430058E
:1045D0000F900F9080910B0286950C948A05089598
:1045E00080910B0280FF14C08E7F80930B020E948B
:1045F0008C208091E40180FF08C086EB96E09F93B9
:104600008F930E9430050F900F9080E00C948A05E4
:104610000895CF93C0910B02C1708091E40180FF97
:104620000CC01F92CF938BED96E09F938F930E94C7
:1046300030050F900F900F900F90CC2319F0CF9171
:104640000C94F022CF910C94CE2290910B02892FE2
:1046500086958F5F8F7791708B3028F4880F892B28
:1046600080930B0202C090930B0280910B028E7F0D
:1046700091E009F490E080910B0290FB80F9809327
:104680000B020E948C208091E40180FF0FC080917A
:104690000B0286951F928F9382EA96E09F938F93E9
:1046A0000E9430050F900F900F900F9080910B0299
:1046B00086950C948A058B3008F08AE0880F9091DB
:1046C0000B029170892B80930B028E7F91E009F48D
:1046D00090E080910B0290FB80F980930B020E9486
:1046E0008C2080910B0286950C948A058091F101B3
:1046F000089508959FB7F8941092E8019FBF909194
:104700001002943009F057C09091E9009F703091E9
:10471000EC00232F217030FD20E8922B23E0209322
:10472000E9002091EB0020FF43C02091EE0027FF1D
:104730003FC02091E601222321F02091E80025FFCF
:1047400037C01092E60126E03091E80035FD15C033
:1047500030911002343061F53091EB0035FD28C006
:10476000215021F481E08093E60122C0EFE9FFE0CF
:104770003197F1F700C00000E7CF8093F1008091FE
:10478000E80085FD0AC08091E80080FFFCCF8091A1
:10479000E8008E778093E80006C08FB7F89421E098
:1047A0002093E8018FBF9F709093E90080E0089507
:1047B0009F709093E9008FEF08950F931F93CF930D
:1047C000DF9300D01F92CDB7DEB78C010E94522636
:1047D000823011F0843021F584E089831B830A83C1
:1047E00082E08093E9008FEF9091E800815095FD81
:1047F00006C095ED9A95F1F700008111F5CF8091F3
:10480000E80085FF0DC040E050E063E070E0CE01BD
:1048100001960E946F268091E8008E778093E800D1
:104820000F900F900F90DF91CF911F910F910895EE
:10483000CF93DF9300D01F92CDB7DEB72091100247
:10484000243031F523E02983805891099B838A83A2
:1048500082E08093E9008FEF9091E800815095FD10
:1048600006C095ED9A95F1F700008111F5CF809182
:10487000E80085FF0DC040E050E063E070E0CE014D
:1048800001960E946F268091E8008E778093E80061
:104890000F900F900F90DF91CF910895CF93DF93FA
:1048A000EC010E945226823011F0843039F581E00B
:1048B0008093E9008FEF9091E800815095FD06C04C
:1048C00095ED9A95F1F700008111F5CF8091E80000
:1048D00085FF14C040E050E068E070E0CE010E9427
:1048E0006F268091E8008E778093E80088E0FE01D3
:1048F000A9EEB1E001900D928A95E1F7DF91CF9199
:1049000008958EE397E00C9497048AE397E00C9463
:10491000970486E397E00E9497040C947D212091F0
:10492000E7012F5F822F62E30E94E32A992319F0A7
:104930002093E70108951092E7018091E801882310
:1049400071F180911002843041F58091E9008F70FF
:104950002091EC00922F917020FD90E8892B93E03C
:104960009093E9009091EB0090FF14C09091EE00BD
:1049700097FF10C09091E80095FF03C01092F100DE
:10498000F9CF9091E80090FF05C09091E8009E77E4
:104990009093E8008F708093E9001092E8010895E9
:1049A00042E061EC81E00E94782742E261EC82E023
:1049B0000E94782742E261EC83E00C947827809192
:1049C0001202833009F45CC030F4813071F082301F
:1049D00009F495C008958A3009F481C08B3009F438
:1049E00067C0893009F0A3C020C080911102813ACC
:1049F00009F09DC08091E800877F8093E800809156
:104A0000150290911602892B21F468E089EE91E05D
:104A100003C060E080E090E070E00E94BA268091E0
:104A2000E8008B778093E80008958091110281322D
:104A300009F07DC08091150290911602029708F04E
:104A400076C08091E800877F8093E8008091E8003D
:104A500082FD05C0809110028111F8CF68C080915D
:104A6000F200823029F48091F1008B7F813021F4B3
:104A70008091F1008093F1018091E8008B7753C021
:104A800080911102813A09F052C0809115029091F3
:104A90001602892B09F04BC08091E800877F809334
:104AA000E8008091E80080FFFCCF80911C0136C0B7
:104AB000809111028132D9F58091150290911602F0
:104AC000892BA9F58091E800877F8093E8000E94F8
:104AD000AD278091130280931C010C94DD19809105
:104AE0001102813221F58091E800877F8093E800F0
:104AF0000E94AD27809114028093F2010895809165
:104B00001102813AA1F48091E800877F8093E80048
:104B10008091E80080FFFCCF8091F2018093F1004A
:104B20008091E8008E778093E8000C94AD2708957B
:104B300084B7877F84BF0FB6F894A89580916000F2
:104B4000886180936000109260000FBE80E88093BF
:104B50006100109261000E94AA140E94FE270E9428
:104B600051288091E20084608093E2008AE793E21A
:104B70000E94552078940E94AE2A0E94B01482E1CF
:104B800091E00E941D1485E297E00E9497048091B5
:104B90001002853089F481E297E00E9497040E9418
:104BA000312180910E02882391F30E94662188238F
:104BB00071F30E945926EBCF0E94E4140E94A012C8
:104BC000E6CF0C94E325292F332723303105C9F094
:104BD00064F42130310581F02230310509F049C0FB
:104BE0008BE590E02EE737E048C02132310521F116
:104BF0002232310571F13DC082E190E029ED37E0CC
:104C00003CC099278130910571F02CF4892B89F5EE
:104C1000EAE7F7E00DC08230910541F0039749F5CE
:104C2000E2E4F7E005C0ECE5F7E002C0E8E4F7E015
:104C3000849190E09F0121C063307105D0F4660F2C
:104C4000771FFB01EC5AFE4F2081318189E090E013
:104C500014C06330710568F4FB01EE0FFF1FE25BC7
:104C6000FE4F20813181FB01E55BFE4F808190E0AA
:104C700004C080E090E020E030E0FA01318320833E
:104C800008950895CF93C82F0E944126C093F30141
:104C9000CF91089580911002843011F081E0089541
:104CA00082E008958091F301811102C00C944A269C
:104CB000089584E089BD86E089BD09B400FEFDCF7A
:104CC0008091D8008F7D8093D8008091E000826031
:104CD0008093E0008091E00081FDFCCF0895CF92A9
:104CE000DF92EF92FF920F931F93CF93DF93EC012C
:104CF0008B016A010E94CC27811133C0C114D104F9
:104D000039F0F60180819181081B190BC80FD91F5A
:104D1000E12CF12C0115110519F18091E80085FDB8
:104D200016C08091E8008E778093E800C114D1040A
:104D300049F0F60180819181E80EF91EF182E0824E
:104D400085E00FC00E94CC27882321F30AC08991F7
:104D50008093F10001501109FFEFEF1AFF0ADACF3B
:104D600080E0DF91CF911F910F91FF90EF90DF9046
:104D7000CF90089520911702309118022617370717
:104D800048F06115710539F42091E8002E772093E1
:104D9000E80001C0B90140E06115710591F1209171
:104DA0001002222309F440C0253009F43FC02091AD
:104DB000E80023FD3DC02091E80022FD2FC0209196
:104DC000E80020FFE9CF2091F20030E0FC01CF01A4
:104DD0006115710559F02830310540F481918093B7
:104DE000F100615071092F5F3F4FF1CF41E0283052
:104DF000310509F040E02091E8002E772093E8008B
:104E0000CBCF4111CCCF0AC080911002882361F032
:104E1000853061F08091E80083FD0AC08091E80050
:104E200082FFF2CF80E0089582E0089583E0089544
:104E300081E0089520911702309118022617370754
:104E400048F06115710539F42091E8002E77209320
:104E5000E80001C0B901FC0120E06115710579F19C
:104E600080911002882309F43DC0853009F43CC0CC
:104E70008091E80083FD3AC08091E80082FD2CC05B
:104E80008091E80080FFE9CF8091F20090E0611509
:104E9000710559F08830910540F424912093F10078
:104EA0003196615071090196F2CF21E0089709F01F
:104EB00020E08091E8008E778093E800CECF21112A
:104EC000CFCF0AC080911002882361F0853061F055
:104ED0008091E80083FD0AC08091E80082FFF2CF54
:104EE00080E0089582E0089583E0089581E00895C8
:104EF000982F953058F59093E900981739F07091F4
:104F0000EC002091ED005091F00003C0242F762F8B
:104F100050E021FF19C03091EB003E7F3093EB0051
:104F20003091ED003D7F3093ED003091EB0031602A
:104F30003093EB007093EC002093ED005093F00061
:104F40002091EE0027FF07C09F5FD3CF8F70809323
:104F5000E90081E0089580E008958091110287FFC3
:104F600011C08091E80082FD05C08091100281117E
:104F7000F8CF11C08091E8008B770BC080911002B0
:104F8000882349F08091E80080FFF8CF8091E80005
:104F90008E778093E80008952091E4003091E50039
:104FA00095E64091EC00842F817040FF22C08091F3
:104FB000E80080FD1CC080911002882391F08530AC
:104FC00091F08091EB0085FD10C04091E40050917C
:104FD000E5004217530729F39A01915011F784E035
:104FE000089582E0089583E0089581E0089580E0C7
:104FF00008954091E80042FFDECF08950E945B28AB
:105000000E945E28E0EEF0E0808181608083E8ED20
:10501000F0E080818F77808319BCE3E6F0E0808147
:105020008160808310920F0208950E945B280E9485
:105030005E288091D8008F778093D8008091D80027
:1050400080688093D8008091D8008F7D8093D800AD
:1050500084E089BD86E089BD09B400FEFDCF1092D1
:10506000100210920C0210920E0210920D0242E0F9
:1050700060E080E00E9478278091E1008E7F80933D
:10508000E1008091E20081608093E2008091E20083
:1050900088608093E2008091E0008E7F8093E00042
:1050A0000895E3E6F0E080818E7F808381E0809345
:1050B0000F020C9415281092E20008951092E1005E
:1050C00008951F920F920FB60F9211242F933F93C2
:1050D0004F935F936F937F938F939F93AF93BF9300
:1050E000EF93FF938091E10082FF0BC08091E2007B
:1050F00082FF07C08091E1008B7F8093E1000E94D6
:105100008F248091E10080FF19C08091E20080FF30
:1051100015C08091E2008E7F8093E2008091E200D2
:1051200080618093E2008091D80080628093D800F3
:1051300019BC85E0809310020E9485248091E100D3
:1051400084FF30C08091E20084FF2CC084E089BDE0
:1051500086E089BD09B400FEFDCF8091D8008F7D27
:105160008093D8008091E1008F7E8093E100809150
:10517000E2008F7E8093E2008091E2008160809364
:10518000E20080910C02882311F084E007C0809136
:10519000E30087FD02C081E001C083E0809310023C
:1051A0000E9489248091E10083FF29C08091E20060
:1051B00083FF25C08091E100877F8093E10082E03A
:1051C0008093100210920C028091E1008E7F8093F8
:1051D000E1008091E2008E7F8093E2008091E20006
:1051E00080618093E20042E060E080E00E947827E6
:1051F0008091F00088608093F0000E948124FF91EC
:10520000EF91BF91AF919F918F917F916F915F913E
:105210004F913F912F910F900FBE0F901F901895B7
:105220001F920F920FB60F9211242F933F934F931B
:105230005F936F937F938F939F93AF93BF93CF931E
:10524000DF93EF93FF93C091E900CF708091EC0062
:10525000D82FD17080FDD0E81092E9008091F00045
:10526000877F8093F00078940E9454291092E9007F
:105270008091F00088608093F000CD2BCF70C093B8
:10528000E900FF91EF91DF91CF91BF91AF919F9195
:105290008F917F916F915F914F913F912F910F90DF
:1052A0000FBE0F901F9018951F93CF93DF93CDB72C
:1052B000DEB7AA970FB6F894DEBF0FBECDBFE1E10F
:1052C000F2E088E08E0F9091F10091938E13FBCF66
:1052D0000E94DF248091E80083FF28C180911102A1
:1052E00090911202492F50E04A30510508F01EC13A
:1052F000FA01E158FF4F0C94392B803821F08238A5
:1053000009F014C108C080910D0290910E029923FA
:1053100089F082600FC0809115028F70853008F08F
:1053200005C18093E9008091EB0085FB882780F917
:105330001092E9009091E800977F9093E8008093A5
:10534000F1001092F100D0C0282F2D7F09F0EEC09F
:10535000882319F0823061F0E9C080911302813016
:1053600009F0E4C0933009F080E080930E022EC073
:105370008091130281112AC0809115028F702FEF46
:10538000280F243008F0D2C08093E9002091EB0070
:1053900020FF1CC0933021F48091EB00806214C088
:1053A0009091EB0090619093EB0021E030E0A90137
:1053B00002C0440F551F8A95E2F74093EA0010920D
:1053C000EA008091EB0088608093EB001092E90086
:1053D0008091E800877F8093E8000E94AD27A6C0F7
:1053E0008111A4C0109113021F778091E30080788F
:1053F000812B8093E3008091E800877F8093E80011
:105400000E94AD278091E80080FFFCCF8091E300EF
:1054100080688093E300111102C082E001C083E044
:105420008093100283C08058823008F07FC0809142
:105430001302909114028C3D53E0950779F583E0B7
:105440008A838AE289834FB7F894DE01139620E0BD
:105450003EE051E2E32FF0E050935700E49120FF4B
:1054600003C0E295EF703F5FEF708E2F90E0EA305F
:1054700010F0C79601C0C0968D939D932F5F243185
:1054800049F74FBF8091E800877F8093E8006AE288
:1054900070E0CE0101960E94BA2615C060911502F7
:1054A00070911602AE014F5F5F4F0E94E125BC0173
:1054B000892BE1F19091E800977F9093E800898132
:1054C0009A810E941A278091E8008B778093E800E8
:1054D0002DC0803859F58091E800877F8093E800DF
:1054E00080910C028093F1008091E8008E7773CF59
:1054F00081111CC0909113029230C0F48091E80099
:10550000877F8093E80090930C020E94AD278091E2
:105510000C02811106C08091E30087FD02C081E08A
:1055200001C084E0809310020E94D0248091E800A2
:1055300083FF0AC08091E800877F8093E800809114
:10554000EB0080628093EB00AA960FB6F894DEBF62
:105550000FBECDBFDF91CF911F910895CF93809162
:1055600010028823A1F0C091E900CF709091EC0067
:10557000892F817090FD80E8C82B1092E9008091FE
:10558000E80083FD0E945429CF70C093E900CF91B9
:105590000895002480FD060E660F11F08695D1F760
:1055A000802D08950024552704C0080E591F880F28
:1055B000991F009729F076956795B8F37105B9F7AB
:1055C000802D952F0895991B79E004C0991F961797
:1055D00008F0961B881F7A95C9F780950895AA1B35
:1055E000BB1B51E107C0AA1FBB1FA617B70710F0CE
:1055F000A61BB70B881F991F5A95A9F78095909500
:10560000BC01CD01089597FB072E16F4009407D036
:1056100077FD09D00E94EF2A07FC05D03EF4909553
:1056200081959F4F0895709561957F4F0895A1E2F0
:105630001A2EAA1BBB1BFD010DC0AA1FBB1FEE1F0C
:10564000FF1FA217B307E407F50720F0A21BB30B57
:10565000E40BF50B661F771F881F991F1A9469F7D3
:1056600060957095809590959B01AC01BD01CF012F
:105670000895EE0FFF1F0590F491E02D09946894B2
:105680000013E894A0E0B0E0E8E4FBE20C94672BA0
:10569000EFEFE7F959016A015E23550FEE08FE2C82
:1056A00087019B01AC019E23990F660B762FCB01DE
:1056B0000E94962BCDB7DEB7EAE00C94832B2F9295
:1056C0003F924F925F926F927F928F929F92AF9292
:1056D000BF92CF92DF92EF92FF920F931F93CF93DF
:1056E000DF93CDB7DEB7CA1BDB0B0FB6F894DEBF76
:1056F0000FBECDBF09942A88398848885F846E849C
:105700007D848C849B84AA84B984C884DF80EE80E5
:10571000FD800C811B81AA81B981CE0FD11D0FB6EE
:10572000F894DEBF0FBECDBFED010895DF93CF9398
:105730009F92A0E49A2E0024D001E001F00116957A
:105740000795F794E794D794C794B794A79448F42F
:105750001068A20FB31FC41FD51FE61FF71F081E36
:10576000191E220F331F441F551F661F771F881FE6
:10577000991F9A9421F79D01AE01BF01C001112428
:105780009F90CF91DF910895FC014150504030F03F
:1057900001900616D1F73197CF01089588279927F0
:1057A0000895F999FECF92BD81BDF89A992780B5E9
:1057B0000895A6E1B0E044E050E00C940B2CA8E181
:1057C000B0E042E050E00C940B2C262FF999FECF6C
:1057D00092BD81BDF89A019700B4021639F01FBA44
:1057E00020BD0FB6F894FA9AF99A0FBE0895039661
:1057F000272F0E94E62B0E94E52B252F0E94E62BE7
:10580000242F0C94E62B0196272F0E94E62B0C9454
:10581000E52BDC01CB01FC01F999FECF06C0F2BDFE
:10582000E1BDF89A319600B40D9241505040B8F75E
:065830000895F894FFCF7B
:10583600010204040401191A1B1C1D1E1F2021222B
:10584600D90176234E2479231824DD2301979695D2
:105856009462646566670001020202020606060992
:1058660009090909090F0F0F0F0F0F15151518193B
:105876001919191919191919192324403622430817
:0A5886000D08EB079007A907C20701
:00000001FF
